:03000000020050AB
:03000B0002013AB5
:1000500075890175A88275A00074327E017F3275A2
:100060008CEE758A00312E74327E027F32758CF7E9
:10007000758A00312E74327E037F327CFA7D003126
:100080002E74327E047F327CFB7D80312E74327E72
:10009000057F327CFC7D66312E74327E067F327C99
:1000A000FD7D00312E74327E077F327CFD7D6E3106
:1000B0002E74327E087F327CFD7DC0312E74327EFC
:1000C000097F327CFE7D00312E74327E0A7F327CC5
:1000D000FE7D33312E74327E0B7F327CFE7D5D31AE
:1000E0002E74327E0C7F327CFE7D80312E74327E07
:1000F0000D7F327CFE7D9E312E74327E0E7F327CEF
:10010000FE7DB7312E74327E0F7F327CFE7DCD3185
:100110002E74327E0F7F327CFE7DE0312E74C87EDD
:100120000F7FC87CFE7DE0312E75A80080FEC200E6
:100130008C8C8D8AD28C3000FD22B2A58C8C8D8A5D
:08014000DF05DE02D200FF32F0
:00000001FF
